S01300004C6564426C696E6B696E672E73726563CE
S113A00000E8FF1FB1A10000FFA100000BA20000A7
S113A010000000000000000000000000000000003C
S113A020000000000000000000000000B1A20000D9
S113A030000000000000000011110000B5A2000070
S113A04049A2000051A2000059A2000061A2000030
S113A050A9A20000A9A20000A9A20000A9A20000D0
S113A06069A2000071A2000079A2000081A2000090
S113A07089A2000091A2000099A20000A9A20000F8
S113A080A9A20000A9A20000A9A20000A9A20000A0
S113A090A9A20000A9A20000A9A20000A1A2000098
S113A0A0A9A20000A9A20000A9A20000A9A2000080
S113A0B0A9A20000A9A20000A9A20000A9A2000070
S113A0C080B500F01FF830480068202101432E4875
S113A0D001602E4800688021890501432B480160F6
S113A0E000F048F82A48006820210143284801600C
S113A0F0284800688021890501432648016000F052
S113A10039F8E0E7244800688021490101432248E6
S113A1100160214800688021890101431E480160D3
S113A1201E4800688021490001431C4801601C4806
S113A13000688021490001431948016019480068FA
S113A14020210143174801601748006880218905D0
S113A1500143154801600C480068202101430A4866
S113A16001600A48006880218905014307480160AD
S113A1707047000000B5002001E000BF401C0B49FF
S113A1808842FAD300BD0000C8F00F4008F10F4028
S113A190C4F00F4004F10F403880044014C0044060
S113A1A074D00440D4F00F4014F10F4040420F002B
S113A1B072B60448044901600448804762B6044802
S113A1C00047000008ED00E000A000003DA20000F0
S113A1D021A2000000F00DF8002801D000BF00BF4C
S113A1E000BF00BF002000BF00BFFFF769FF00F001
S113A1F002F80120704780B500F002F801BDFEE7C7
S113A2000746384600F002F8FBE7FEE780B500BFDA
S113A21000BF024A11001820ABBEFBE72600020073
S113A2200548014603B4684680F3098800BF00BFAF
S113A23000BF00BFFFF7CEFFA5EDF5FE00200149EA
S113A240086070470081044000480047A9A200004C
S113A25000480047A9A2000000480047A9A2000046
S113A26000480047A9A2000000480047A9A2000036
S113A27000480047A9A2000000480047A9A2000026
S113A28000480047A9A2000000480047A9A2000016
S113A29000480047A9A2000000480047A9A2000006
S113A2A000480047A9A2000000480047A9A20000F6
S109A2B0FEE7FEE7FEE7F5
S903A22139
