S014000041737369676E6D656E7420342E73726563A3
S113A00010E8FF1FE1A3000043A400004FA40000D8
S113A010000000000000000000000000000000003C
S113A020000000000000000000000000F5A4000093
S113A0300000000000000000F7A40000F9A40000E4
S113A0408DA4000095A400009DA40000A5A4000018
S113A050EDA40000EDA40000EDA40000EDA40000B8
S113A060ADA40000B5A40000BDA40000C5A4000078
S113A070CDA40000D5A40000DDA40000EDA40000E0
S113A080EDA40000EDA40000EDA40000EDA4000088
S113A090EDA40000EDA40000BBA20000E5A40000B4
S113A0A0EDA40000EDA40000EDA40000EDA4000068
S113A0B0EDA40000EDA40000EDA40000EDA4000058
S113A0C05E4800688021490101435C4801605B48A7
S113A0D0006880218901014358480160584800689C
S113A0E0584901405648016055480068802149009C
S113A0F001435348016054480068524901405248A2
S113A1000160514800688021490001434E480160C4
S113A1104E480068202101434C4801604C480068C7
S113A1208021890501434A4801604A48006880212A
S113A13089050143474801604748006820210143DD
S113A14045480160704770B50C0000210500EDB270
S113A150002D0BD00500EDB2FF2D07D02500EDB288
S113A160002D03D02500EDB2FF2D01D1012128E0FF
S113A1703A4D2D78002D10D1394D2D680600F6B2D8
S113A180B5420AD3374800688024A40504433548FF
S113A19004600120314C207013E0314D2D68C0B2B1
S113A1A0E4B2001985420CD32E4800688024A4052B
S113A1B004432C4804600020294C20600020274CD4
S113A1C020701000C0B200280BD01000C0B2FF28CD
S113A1D007D01800C0B2002803D01800C0B2FF286E
S113A1E001D1022126E02048007800280FD11F4821
S113A1F000681400E4B2A04209D31D48006820227C
S113A20002431B4802600120174A107012E01748ED
S113A2100068D2B2DBB2D21890420BD31448006863
S113A22020220243124802600020104A10600020DD
S113A2300D4A10700800C0B270BD000038800440A0
S113A24014C00440FFF8FFFF74D00440D4F00F4062
S113A25014F10F4008F10F40C8F00F400CE0FF1F4D
S113A26000E0FF1F0CF10F400DE0FF1F04E0FF1F93
S113A270CCF00F40194800681949014017480160A3
S113A28018480068802109040143164801601648F3
S113A290006802218843144908601448144908607E
S113A2A01448006802210143124801601148006803
S113A2B0012101430F48016070470F4800680121E4
S113A2C001430D4801600D480068401C0B490860BB
S113A2D00B480068401C0A490860704744800440E9
S113A2E0FFFFF8FF3C80044000700340FFFF3F0184
S113A2F000710340087103400C71034000E0FF1F2C
S113A30004E0FF1F0121C006C00E81401648016011
S113A310704780B5FFF7D4FE1620FFF7F3FFFFF771
S113A320A9FF1248037812480278124801781248AB
S113A3300078FFF708FF11490870104800780128D9
S113A34003D00E4800780228EBD10D480068802124
S113A350890501430A4801600A4800682021014335
S113A36008480160DDE7000000E100E00BE0FF1FAA
S113A3700AE0FF1F09E0FF1F08E0FF1F0EE0FF1FB8
S113A38004F10F40C4F00F4030B401220EE0036822
S113A390C31844680830144202D04D462C19641E78
S113A3A01D6825601B1D241D091FF9D10168001DAE
S113A3B00029ECD130BC704710B5074979441831F5
S113A3C0064C7C44163404E0081D0A688918884742
S113A3D00100A142F8D110BD2C0000003C00000097
S113A3E072B60448044901600448804762B60448D0
S113A3F00047000008ED00E000A0000081A4000078
S113A40065A4000085FFFFFF10000000F0000000BD
S113A41000E0FF1F0000000000F00DF8002801D04C
S113A420FFF7CAFF00BF00BF002000BF00BFFFF757
S113A43070FF00F002F80120704780B500F002F8C8
S113A44001BDFEE70746384600F002F8FBE7FEE7E9
S113A45080B500BF00BF024A11001820ABBEFBE765
S113A460260002000548014603B4684680F30988C3
S113A47000BF00BF00BF00BFFFF7CEFFA5EDF5FE94
S113A48000200149086070470081044000480047EB
S113A490EDA4000000480047EDA400000048004778
S113A4A0EDA4000000480047EDA400000048004768
S113A4B0EDA4000000480047EDA400000048004758
S113A4C0EDA4000000480047EDA400000048004748
S113A4D0EDA4000000480047EDA400000048004738
S113A4E0EDA4000000480047EDA400000048004728
S113A4F0EDA40000FEE7FEE7FEE700000000000018
S10FA50000000000010102020000000045
S903A465F3
