S0100000426C696E6B4C65642E737265630F
S113A00000E8FF1F15A300000FA3000013A3000026
S113A010000000000000000000000000000000003C
S113A02000000000000000000000000063A3000026
S113A03000000000000000006FA3000015A4000051
S113A040ADA30000B5A30000BDA30000C5A300009C
S113A0500DA400000DA400000DA400000DA4000038
S113A060CDA30000D5A30000DDA30000E5A30000FC
S113A070EDA30000F5A30000FDA300000DA4000063
S113A08011110000011100000DA400000DA4000008
S113A0900DA400000DA400000DA4000005A4000000
S113A0A00DA400000DA400000DA400000DA40000E8
S113A0B00DA400000DA400000DA400000DA40000D8
S113A0C080B500F005F800F043F800F06AF8FAE70C
S113A0D058480068802149010143564801605548A9
S113A0E00068802189010143524801605248006898
S113A0F08021490001435048016050480068802194
S113A100490001434D4801604D4800682021014346
S113A1104B4801604B480068802189050143494848
S113A120016049480068802189050143464801606F
S113A13046480068202101434448016070470000FC
S113A14000B5002101E000BF491C8142FBD300BDE2
S113A15010B5002420E03C480068802189050143B3
S113A160394801603A4800682021014338480160B9
S113A1703848FFF7E5FF354800682021014333489C
S113A1800160354800688021890501433248016037
S113A1903048FFF7D5FF641C2000C0B20528DADB85
S113A1A010BD38B50020002409E0280040B200F0BA
S113A1B018F8FE352800C0B20028F6D1641C20002F
S113A1C0C0B205280CDA002504E0280040B200F0F3
S113A1D008F8AD1C2800C0B26428F6DB6425E9E762
S113A1E031BD38B51D4C40B26043642100F038F8ED
S113A1F00500154800688021890501431248016063
S113A2001348006820210143114801602800FFF72A
S113A21097FF114800688021890501430E480160B9
S113A2200A4800682021014308480160601BFFF7C9
S113A23087FF31BD3880044014C0044074D004400A
S113A240D4F00F4014F10F4008F10F40C8F00F4054
S113A250C4F00F40C86C200004F10F4004A60000B5
S113A2600022030A8B420BD203098B4219D2430802
S113A2708B422ED2411A00D20146524110467047F9
S113A280FF2209023FD012068B4205D312120902A3
S113A2908B4201D31212090203098B4219D300E045
S113A2A0090AC3098B4201D3CB01C01A5241830965
S113A2B08B4201D38B01C01A524143098B4201D313
S113A2C04B01C01A524103098B4201D30B01C01A3E
S113A2D05241C3088B4201D3CB00C01A52418308B8
S113A2E08B4201D38B00C01A524143088B4201D3E5
S113A2F04B00C01A5241884200D3401A5241CFD277
S113A30001461046704708B500F002F808BDFEE7A4
S113A3107047FEE772B60448044901600448804768
S113A32062B604480047000008ED00E000A0000009
S113A330A1A3000085A3000000F00DF8002801D0BF
S113A34000BF00BF00BF00BF002000BF00BFFFF779
S113A350B7FE00F002F80120704780B500F002F863
S113A36001BDFEE70746384600F002F8FBE7FEE7CA
S113A37080B500BF00BF024A11001820ABBEFBE746
S113A380260002000548014603B4684680F30988A4
S113A39000BF00BF00BF00BFFFF7CEFFA5EDF5FE75
S113A3A000200149086070470081044000480047CC
S113A3B00DA40000004800470DA400000048004719
S113A3C00DA40000004800470DA400000048004709
S113A3D00DA40000004800470DA4000000480047F9
S113A3E00DA40000004800470DA4000000480047E9
S113A3F00DA40000004800470DA4000000480047D9
S113A4000DA40000004800470DA4000000480047C8
S109A4100DA40000FEE7AC
S903A385D4
