S00C0000554152542E73726563DC
S1130400FFFFFFFFFFFFFFFFFFFFFFFFFEFFFFFFF9
S113A000A8E9FF1FBDA70000EBA2000007A5000000
S113A010000000000000000000000000000000003C
S113A02000000000000000000000000023A6000063
S113A03000000000000000001BA8000027A800008A
S113A04075A800007DA8000085A800008DA8000068
S113A050CDA80000CDA80000CDA80000CDA8000028
S113A06095A800009DA80000A5A80000ADA80000C8
S113A07017A40000B5A80000BDA80000CDA80000EA
S113A080CDA80000CDA80000CDA80000CDA80000F8
S113A090CDA80000CDA80000CDA80000C5A80000F0
S113A0A0CDA80000CDA80000CDA80000CDA80000D8
S113A0B0CDA80000CDA80000CDA80000CDA80000C8
S113A0C030B500230021012200240478532C00D150
S113A0D001234478303C0A2C03D24478342C00D039
S113A0E0012102240DE02500EDB2455D303D0A2D2D
S113A0F006D32500EDB2455D413D1A2D00D3002263
S113A100641C2500EDB2455D0D2DECD1DBB2C9B266
S113A1101940D2B20A40002A01D0012000E00020F8
S113A120C0B230BDF8B50400002000250026A07898
S113A13000F08AF8C0B20701E07800F085F838181A
S113A140042101E06D1C491C0A00D2B2A25C0D2A54
S113A150F8D1C0B202214843EDB2A84200D1012691
S113A1603000C0B2F2BDF8B5070001240025022674
S113A17011E03000C0B2385C00F066F80095C0B25F
S113A18005013000C0B23818407800F05DF8281896
S113A190009D2D18B61C3000C0B2381840780A282B
S113A1A0E7D1E8B2FF2800D000242000C0B2F2BDFD
S113A1B0F8B506000125707800F046F80400200088
S113A1C0C0B2052810D1B07800F03EF8C0B2070143
S113A1D0F07800F039F83A18521ED2B20421300057
S113A1E000F03DF8164908802000C0B2012807D0CD
S113A1F02000C0B2022803D02000C0B2032804D13A
S113A20010480088401C0F4908802000C0B207286D
S113A21006D02000C0B2082802D0E4B2092C0CD128
S113A2200748008807490988884200D00025002093
S113A230034908800020034908802800C0B2F2BD09
S113A2409CE1FF1F9EE1FF1F00B50100C9B2303938
S113A2500A2901D2D03000E0C930C0B200BDF2B545
S113A2600400002702204243150000260DE0684642
S113A27000783100C9B24018205CFFF7E5FF691E81
S113A280891B890088403F18761C30002900C0B221
S113A290C9B28842EBD33800F2BD38B504000025BA
S113A2A02000FFF70DFF694608702000FFF73AFF12
S113A2B0694648702000FFF756FF69468870200001
S113A2C0FFF776FF6946C8706846007869464978A2
S113A2D001406846807808406946C97801400029F1
S113A2E000D001252800C0B232BDFEE700B54E4AB9
S113A2F012684E4B13404C4A13604B4A12684C4B45
S113A3001340494A1360484A12688023DB0413430C
S113A310454A1360474A12688023DB001343454AC9
S113A3201360454A1278F3231340434A1370434A97
S113A3301278E0231340414A1370404A12780F23E5
S113A34013433E4A13703D4A1278D2B2D206D20E5B
S113A350521C4A43110000F07FF839490978E02281
S113A3600A4037490A7036490978354A1170354927
S113A37009780021334A1170324909780843314978
S113A380087031480078EF2101402F4801702B48B4
S113A3900078DF210140294801702B480078FD2115
S113A3A001402948017026480078DF2101402448F3
S113A3B0017026480078DF210140244801702348B9
S113A3C00078EF210140214801701B4800784006C5
S113A3D0400E194908701848007820210143164896
S113A3E00170154800780C2101431348017000BD29
S113A3F000B5002109E0164A12781206FBD50A00BE
S113A400D2B2825C134B1A70491C0A00D2B2825C2D
S113A410002AF0D100BD80B50E480078C0B200F02B
S113A4207DF801BD0000000004800440FFFFFEFF32
S113A430FFFFFFF33480044003A006400AA0064057
S113A44000A0064001A0064002A0064005A0064068
S113A45004A0064007A006400022030A8B420BD248
S113A46003098B4219D243088B422ED2411A00D2DF
S113A4700146524110467047FF2209023FD012069E
S113A4808B4205D3121209028B4201D31212090224
S113A49003098B4219D300E0090AC3098B4201D393
S113A4A0CB01C01A524183098B4201D38B01C01ADC
S113A4B0524143098B4201D34B01C01A5241030953
S113A4C08B4201D30B01C01A5241C3088B4201D302
S113A4D0CB00C01A524183088B4201D38B00C01AAF
S113A4E0524143088B4201D34B00C01A5241884267
S113A4F000D3401A5241CFD201461046704708B5E6
S113A50000F08EF808BDFEE70020404908700020E6
S113A5103F49087000203F490870704700B53E4924
S113A5203B4A127851235A4389183C4A127888547A
S113A5303948374909785122514340183749097835
S113A540405C0A281DD1002034490870012032499A
S113A5502F4A127851235A438918502288542C4880
S113A5600078401C2A4908702A480078401C294970
S113A570087027480078052808D10020244908706D
S113A58004E026480078401C2449087000BD10B53A
S113A59000F02DF80228FBD01F481C4909785122ED
S113A5A0514340185021405C0028F5D01A481749FF
S113A5B009785122514340180021174A134B1B7844
S113A5C051246343D2185023D15412490978491EA7
S113A5D0104A11700D490978491C0C4A11700B4935
S113A5E00978052902D10021084A117010BD00B56F
S113A5F0002008490978002900D10220054909787A
S113A600052900D10120C0B200BD0000A2E1FF1F56
S113A610A3E1FF1FA4E1FF1F00E0FF1FA5E1FF1F4F
S113A6207047FEE7214800688021890101431F48E3
S113A63001601F4800681F4901401D4801601C4813
S113A6400068802149000143194801601A480068E4
S113A6508021890501431848016018480068802159
S113A660890501431548016010480068802189006C
S113A67001430E480160124800680E490140104829
S113A68001600F4800688021890001430C48016083
S113A6900C480068074901400A48016009480068FD
S113A6A080218900014307480160704738800440D5
S113A6B074D00440FFF8FFFF14F10F4004F10F4081
S113A6C004900440089004400121C006C00E81405B
S113A6D01A480160704780B5FFF7A4FFE1214902E1
S113A6E0A0204004FFF702FEFFF70EFF0C20FFF747
S113A6F0EBFF02E01248FFF77BFE124800780128C6
S113A7001BD0FFF744FF104908600F480068FFF7AB
S113A710C4FD0E4908700D4800780128EAD00C48A1
S113A720FFF766FE0B48006880218905014309484C
S113A7300160012003490870DFE701BD00E100E08A
S113A74064A80000A1E1FF1F98E1FF1FA0E1FF1F23
S113A7506CA8000008F10F4070B40123002413E03A
S113A7600168001D194202D04D466918491E0C604B
S113A770091D121F042AFAD20D00960701D50C8078
S113A780AD1C1A4000D02C700268001D002AE7D1CD
S113A79070BC704710B5074979441831064C7C44A5
S113A7A0163404E0081D0A68891888470100A1428C
S113A7B0F8D110BD2C0000003800000072B6044827
S113A7C0044901600448804762B604480047000019
S113A7D008ED00E000A0000059A800003DA800001A
S113A7E079FFFFFFA801000000E0FF1F0000000048
S113A7F000F00DF8002801D0FFF7CCFF00BF00BF28
S113A800002000BF00BFFFF766FF00F002F8012040
S113A810704780B500F002F801BDFEE707463846F0
S113A82000F002F8FBE7FEE780B500BF00BF024A74
S113A83011001820ABBEFBE72600020005480146C4
S113A84003B4684680F3098800BF00BF00BF00BF9F
S113A850FFF7CEFFA5EDF5FE002001490860704723
S113A860008104403E3E0D0A000000006572726FD4
S113A870720D0A0000480047CDA8000000480047B8
S113A880CDA8000000480047CDA8000000480047BC
S113A890CDA8000000480047CDA8000000480047AC
S113A8A0CDA8000000480047CDA80000004800479C
S113A8B0CDA8000000480047CDA80000004800478C
S113A8C0CDA8000000480047CDA80000004800477C
S107A8D0CDA800000B
S903A83D17
